S01400004C41425F335F4D41535445522E7372656384
S11300000C943B000C944D000C944D000C944D004A
S11300100C944D000C944D000C944D000C944D0028
S11300200C944D000C944D000C944D000C944D0018
S11300300C944D000C944D000C944D000C944D0008
S11300400C944D000C944D000C944D000C944D00F8
S11300500C944D000C944D000C944D000C944D00E8
S11300600C944D000C944D0067006E0075007F00E9
S1130070890093009D0011241FBECFEFD8E0DEBF9E
S1130080CDBF21E0A0E0B1E001C01D92A230B207D3
S1130090E1F70E9412010C9446010C940000E82F31
S11300A084FF52C084B18C6284B984B18F7E84B9D8
S11300B08CB580618CBDE7708E2F90E08730910500
S11300C008F04BC0FC01EC5CFF4F0C9440018CB574
S11300D08C7F8CBD8DB581608DBD3FC08CB58C7F10
S11300E08CBD8DB58E7F8DBD38C08CB581608CBDC7
S11300F08CB58D7F8CBD8DB581608DBD2EC08CB5CA
S113010081608CBD8CB58D7F8CBD8DB58E7F8DBD92
S113011024C08CB58E7F8CBD8CB582608CBD8DB5B2
S113012081608DBD1AC08CB58E7F8CBD8CB582600C
S11301308CBD8DB58E7F8DBD10C08CB583608CBD9C
S11301408DB58E7F8DBD09C084B1806184B984B1C1
S1130150837D84B98CB58F7E8CBD8CB5462B242BC6
S1130160282B20642CBD08958EBD0DB407FEFDCF51
S113017008950DB407FEFDCF8EB508958F3F23E09B
S1130180920739F48BB183708BB985B18C7F85B9B3
S1130190089587FF04C025B1226025B903C025B1A5
S11301A02D7F25B986FF04C025B1216025B903C080
S11301B025B12E7F25B985FF04C02BB120682BB94A
S11301C003C02BB12F772BB984FF04C02BB120645B
S11301D02BB903C02BB12F7B2BB983FF04C02BB1E8
S11301E020622BB903C02BB12F7D2BB982FF04C031
S11301F02BB120612BB903C02BB12F7E2BB981FF0A
S113020004C02BB128602BB903C02BB1277F2BB9B5
S113021080FF04C08BB184608BB908958BB18B7F50
S11302208BB908958AB18C6F8AB984B1836084B91B
S11302308BB183708BB985B18C7F85B920E040E0A8
S113024060E083E50E944F0085B18B7F85B983E62A
S11302500E94B4000E94B90090E090930101809341
S113026000010E94BE0085B1846085B92FEF84E34C
S11302709CE0215080409040E1F700C00000E4CFB2
S1130280EE0FFF1F0590F491E02D0994F894FFCF31
S9030000FC
