S01400004C41425F335F4D41535445522E7372656384
S11300000C943B000C9458000C9458000C94580029
S11300100C9458000C9458000C9458000C945800FC
S11300200C9458000C9458000C9458000C945800EC
S11300300C9458000C9458000C9458000C945800DC
S11300400C9458000C9458000C9458000C945800CC
S11300500C9458000C9458000C9458000C945800BC
S11300600C9458000C9458007200790080008A00A7
S113007094009E00A80011241FBECFEFD8E0DEBF7D
S1130080CDBF12E0A0E0B1E0E0EDFEE002C00590DB
S11300900D92AE38B107D9F722E0AEE8B2E001C064
S11300A01D92A43DB207E1F70E94FC010C9466077F
S11300B00C940000E82F84FF52C084B18C6284B990
S11300C084B18F7E84B98CB580618CBDE7708E2F2E
S11300D090E08730910508F04BC0FC01EC5CFF4FC9
S11300E00C9454048CB58C7F8CBD8DB581608DBD12
S11300F03FC08CB58C7F8CBD8DB58E7F8DBD38C0D7
S11301008CB581608CBD8CB58D7F8CBD8DB58160C7
S11301108DBD2EC08CB581608CBD8CB58D7F8CBDA2
S11301208DB58E7F8DBD24C08CB58E7F8CBD8CB576
S113013082608CBD8DB581608DBD1AC08CB58E7FFB
S11301408CBD8CB582608CBD8DB58E7F8DBD10C08D
S11301508CB583608CBD8DB58E7F8DBD09C084B197
S1130160806184B984B1837D84B98CB58F7E8CBD64
S11301708CB5462B242B282B20642CBD08958EBDD2
S11301800DB407FEFDCF08950DB407FEFDCF8EB567
S113019008959B01AC0160E472E48FE090E00E945A
S11301A03204215031093093C5002093C40088E102
S11301B08093C10086E08093C20008959091C000AE
S11301C095FFFCCF8093C60008958091C0008823DA
S11301D0E4F78091C6000895CF93DF93EC0103C048
S11301E021960E94DE0088818111FACFDF91CF91A0
S11301F0089580E091E00E94EC0085E191E00E9486
S1130200EC0082E391E00E94EC008FE491E00E9414
S1130210EC008DE691E00E94EC008BE891E00E94F6
S1130220EC008BEA91E00E94EC008FEB91E00E94DD
S1130230EC000895813371F038F48B3209F450C026
S11302408D3209F45BC088C0823339F1843309F4F8
S113025063C082C0CB0164E670E00E941E049F93D9
S11302608F937F936F9387ED91E09F938F931F926A
S113027080E48F9384E992E09F938F930E946E04AD
S113028084E992E00E94EC008DB79EB70A960FB6FF
S1130290F8949EBF0FBE8DBF63C0CA0164E670E0D0
S11302A00E941E049F938F937F936F938FEE91E030
S11302B09F938F931F9280E48F9384E992E09F939E
S11302C08F930E946E0484E992E00E94EC008DB743
S11302D09EB70A960FB6F8949EBF0FBE8DBF40C05E
S11302E080918E0290918F02019690938F02809359
S11302F08E0287E092E00E94EC0032C080918E0270
S113030090918F02019790938F0280938E0280E2E6
S113031092E00E94EC0024C080918F028F93809120
S11303208E028F9389E392E09F938F931F9280E4D0
S11303308F9384E992E09F938F930E946E0484E9E3
S113034092E00E94EC008DB79EB708960FB6F89421
S11303509EBF0FBE8DBF04C082E592E00E94EC00F8
S11303600E94F9000895882324F495B1926095B908
S113037003C095B19D7F95B986FF04C095B1916086
S113038095B903C095B19E7F95B985FF04C09BB113
S113039090689BB903C09BB19F779BB984FF04C04D
S11303A09BB190649BB903C09BB19F7B9BB983FFB6
S11303B004C09BB190629BB903C09BB19F7D9BB964
S11303C082FF04C09BB190619BB903C09BB19F7E27
S11303D09BB981FF04C09BB198609BB903C09BB1DA
S11303E0977F9BB980FF04C08BB184608BB908955B
S11303F08BB18B7F8BB908958AB18C6F8AB984B124
S1130400836084B98BB183708BB985B18C7F85B9D6
S113041020E040E060E082E50E945A0060E875E276
S113042080E090E00E94C9000E94F90085B18B7FB2
S113043085B983E60E94BF000E94C40090E09093B7
S113044093028093920280918E020E94B30185B13F
S1130450846085B9609192027091930280E090E08B
S11304600E94230320E030E040EA50E40E94B103FC
S113047020E030EC4FE754E40E947B0220E030E0BF
S113048048EC52E40E94B1030E94ED026B017C012E
S1130490609190027091910280E090E00E942303A9
S11304A020E030E040EA50E40E94B10320E030EC68
S11304B04FE754E40E947B0220E030E048EC52E431
S11304C00E94B1030E94ED024B015C018091C000C7
S11304D088233CF40E94E500A401B60190E00E9448
S11304E01A012FEF82E597E0215080409040E1F718
S11304F000C000009BCF0E948F020C9477030E94DF
S1130500700358F00E94690340F029F45F3F29F01A
S11305100C94600351110C94AB030C9466030E9479
S1130520880368F39923B1F3552391F3951B550B75
S1130530BB27AA2762177307840738F09F5F5F4FB2
S1130540220F331F441FAA1FA9F335D00E2E3AF0F1
S1130550E0E832D091505040E695001CCAF72BD009
S1130560FE2F29D0660F771F881FBB1F261737075A
S11305704807AB07B0E809F0BB0B802DBF01FF278C
S113058093585F4F3AF09E3F510578F00C94600306
S11305900C94AB035F3FE4F3983ED4F386957795D0
S11305A06795B795F7959F5FC9F7880F911D969545
S11305B0879597F90895E1E0660F771F881FBB1FA1
S11305C0621773078407BA0720F0621B730B840B4E
S11305D0BA0BEE1F88F7E09508950E94F402689420
S11305E0B1110C94AB0308950E94900388F09F57B7
S11305F098F0B92F9927B751B0F0E1F0660F771F43
S1130600881F991F1AF0BA95C9F714C0B13091F038
S11306100E94AA03B1E008950C94AA03672F782FCF
S11306208827B85F39F0B93FCCF3869577956795FD
S1130630B395D9F73EF490958095709561957F4F69
S11306408F4F9F4F0895E89409C097FB3EF490950F
S11306508095709561957F4F8F4F9F4F9923A9F097
S1130660F92F96E9BB279395F69587957795679526
S1130670B795F111F8CFFAF4BB0F11F460FF1BC06A
S11306806F5F7F4F8F4F9F4F16C0882311F096E9FD
S113069011C0772321F09EE8872F762F05C06623AB
S11306A071F096E8862F70E060E02AF09A95660F64
S11306B0771F881FDAF7880F9695879597F908951D
S11306C097F99F6780E870E060E008959FEF80EC01
S11306D0089500240A9416161706180609060895A4
S11306E000240A9412161306140605060895092E0A
S11306F00394000C11F4882352F0BB0F40F4BF2B79
S113070011F460FF04C06F5F7F4F8F4F9F4F0895B8
S113071057FD9058440F551F59F05F3F71F04795AE
S1130720880F97FB991F61F09F3F79F08795089593
S1130730121613061406551FF2CF4695F1DF08C0B2
S1130740161617061806991FF1CF869571056105CF
S113075008940895E894BB2766277727CB0197F977
S113076008950E94C4030C9477030E94690338F02F
S11307700E94700320F0952311F00C9460030C94F4
S1130780660311240C94AB030E94880370F3959FB5
S1130790C1F3950F50E0551F629FF001729FBB2774
S11307A0F00DB11D639FAA27F00DB11DAA1F649F10
S11307B06627B00DA11D661F829F2227B00DA11DC3
S11307C0621F739FB00DA11D621F839FA00D611D49
S11307D0221F749F3327A00D611D231F849F600D6A
S11307E0211D822F762F6A2F11249F5750409AF093
S11307F0F1F088234AF0EE0FFF1FBB1F661F771F1F
S1130800881F91505040A9F79E3F510580F00C94E9
S113081060030C94AB035F3FE4F3983ED4F38695F6
S113082077956795B795F795E7959F5FC1F7FE2B89
S1130830880F911D9695879597F9089597FB072E34
S113084016F4009407D077FD09D00E945A0407FCDF
S113085005D03EF4909581959F4F089570956195CC
S11308607F4F0895A1E21A2EAA1BBB1BFD010DC0E8
S1130870AA1FBB1FEE1FFF1FA217B307E407F5074C
S113088020F0A21BB30BE40BF50B661F771F881F28
S1130890991F1A9469F760957095809590959B01BE
S11308A0AC01BD01CF010895EE0FFF1F0590F49137
S11308B0E02D0994AA1BBB1B51E107C0AA1FBB1F53
S11308C0A617B70710F0A61BB70B881F991F5A95D8
S11308D0A9F780959095BC01CD010895AEE0B0E0F4
S11308E0E4E7F4E00C943D070D891E898F89988D07
S11308F026E02C831A83098397FF02C080E090E8E6
S113090001979E838D83AE01455E5F4F698D7A8D1D
S1130910CE0101960E949E044D815E8157FD0AC05E
S11309202F813885421753070CF49A01F801E20F1E
S1130930F31F10822E96E4E00C945907ABE0B0E06C
S1130940E4EAF4E00C942F076C017B018A01FC01BA
S113095017821682838181FFCCC1CE0101963C01AE
S1130960F6019381F70193FD859193FF81917F01B6
S1130970882309F4BAC1853239F493FD859193FF34
S113098081917F01853229F4B60190E00E94950699
S1130990E7CF912C212C312CFFE1F315D8F08B32C9
S11309A079F038F4803279F08332A1F4232D206178
S11309B01DC08D3261F0803369F4232D216016C08F
S11309C0832D8260382EE32DE4603E2E2AC0F32D61
S11309D0F8601DC037FC2DC020ED280F2A3040F0F0
S11309E08E32B9F436FC81C1232D2064322E19C015
S11309F036FE06C08AE0989E200D1124922E11C066
S1130A00EAE02E9E200D1124222EF32DF0623F2EBB
S1130A1008C08C3621F4832D8068382E02C08836B5
S1130A2041F4F70193FD859193FF81917F01811139
S1130A30B3CF982F9F7D9554933028F40C5F1F4FAC
S1130A409FE399830DC0833631F0833771F083358A
S1130A5009F059C021C0F801808189830E5F1F4FBE
S1130A6088248394912C530113C02801F2E04F0E83
S1130A70511CF801A080B18036FE03C0692D70E0DE
S1130A8002C06FEF7FEFC5010E948A064C0182010C
S1130A90F32DFF773F2E16C0280122E0420E511C91
S1130AA0F801A080B18036FE03C0692D70E002C059
S1130AB06FEF7FEFC5010E947F064C01F32DF068B4
S1130AC03F2E820133FC1BC0822D90E088169906CC
S1130AD0B0F4B60180E290E00E9495062A94F4CF27
S1130AE0F50137FC859137FE81915F01B60190E0F5
S1130AF00E94950621102A9421E0821A91088114FB
S1130B00910471F7E8C0843611F0893641F5F80193
S1130B1037FE07C060817181828193810C5F1F4F12
S1130B2008C060817181072E000C880B990B0E5F41
S1130B301F4FF32DFF763F2E97FF09C090958095A8
S1130B40709561957F4F8F4F9F4FF0683F2E2AE03D
S1130B5030E0A3010E94D106882E861845C085374F
S1130B6031F4232D2F7EB22E2AE030E025C0932DC0
S1130B70997FB92E8F36C1F018F4883579F0B5C055
S1130B80803719F0883721F0B0C0E92FE061BE2E1C
S1130B90B4FE0DC0FB2DF460BF2E09C034FE0AC0A4
S1130BA0292F2660B22E06C028E030E005C020E1DF
S1130BB030E002C020E132E0F801B7FE07C06081F6
S1130BC07181828193810C5F1F4F06C060817181A6
S1130BD080E090E00E5F1F4FA3010E94D106882E93
S1130BE08618FB2DFF773F2E36FE0DC0232D2E7F5A
S1130BF0A22E891458F434FE0BC032FC09C0832D94
S1130C008E7EA82E05C0B82CA32C03C0B82C01C01E
S1130C10B92CA4FE0FC0FE01E80DF11D80818033C4
S1130C2021F49A2D997EA92E09C0A2FE06C0B39480
S1130C30B39404C08A2D867809F0B394A3FC11C040
S1130C40A0FE06C0B21488F4280C922C9B180EC087
S1130C50B21460F4B60180E290E00E949506B39469
S1130C60F7CFB21418F42B1802C0982C212CA4FE30
S1130C7010C0B60180E390E00E949506A2FE17C062
S1130C80A1FC03C088E790E002C088E590E0B601CB
S1130C900CC08A2D867859F0A1FE02C08BE201C0F7
S1130CA080E2A7FC8DE2B60190E00E9495068914CB
S1130CB038F4B60180E390E00E9495069A94F7CF49
S1130CC08A94F301E80DF11D8081B60190E00E9441
S1130CD095068110F5CF222009F442CEB60180E2B8
S1130CE090E00E9495062A94F6CFF60186819781BA
S1130CF002C08FEF9FEF2B96E2E10C944B07FC01AF
S1130D000590615070400110D8F7809590958E0F32
S1130D109F1F0895FC016150704001900110D8F7A5
S1130D20809590958E0F9F1F08950F931F93CF93D7
S1130D30DF93FB01238121FD03C08FEF9FEF2CC0C4
S1130D4022FF16C0468157812481358142175307FB
S1130D5044F4A081B1819D012F5F3F4F31832083F3
S1130D608C93268137812F5F3F4F3783268314C0AE
S1130D708B01EC01FB010084F185E02D0995892BA1
S1130D80E1F6D80116968D919C91179701961796C6
S1130D909C938E931697CE01DF91CF911F910F9163
S1130DA00895FA01AA27283051F1203181F1E894FD
S1130DB06F936E7F6E5F7F4F8F4F9F4FAF4FB1E04A
S1130DC03ED0B4E03CD0670F781F891F9A1FA11D45
S1130DD0680F791F8A1F911DA11D6A0F711D811D46
S1130DE0911DA11D20D009F468943F912AE0269F0B
S1130DF011243019305D3193DEF6CF010895462F6A
S1130E004770405D4193B3E00FD0C9F7F6CF462F4A
S1130E104F70405D4A3318F0495D31FD40524193B3
S1130E2002D0A9F7EACFB4E0A69597958795779570
S1130E306795BA95C9F700976105710508959B01F7
S1130E40AC010A2E06945795479537952795BA9580
S1130E50C9F7620F731F841F951FA01D08952F9259
S1130E603F924F925F926F927F928F929F92AF9236
S1130E70BF92CF92DF92EF92FF920F931F93CF9383
S1130E80DF93CDB7DEB7CA1BDB0B0FB6F894DEBF1A
S1130E900FBECDBF09942A88398848885F846E8440
S1130EA07D848C849B84AA84B984C884DF80EE808A
S1130EB0FD800C811B81AA81B981CE0FD11D0FB693
S1130EC0F894DEBF0FBECDBFED010895F894FFCFB7
S1130ED00D0A2A2A2A2A2A204D656E75202A2A2AD2
S1130EE02A2A0D0A00312E204D6F7374726172200C
S1130EF076616C6F72657320646520414443370DDD
S1130F000A00322E204D6F73747261722076616C08
S1130F106F72657320646520414443360D0A002BCB
S1130F202E20496E6372656D656E74617220636F05
S1130F306E7461646F7220282B290D0A002D2E20F7
S1130F4044656372656D656E74617220636F6E745F
S1130F5061646F7220282D290D0A00342E204D6FF4
S1130F6073747261722076616C6F722064656C2098
S1130F70636F6E7461646F720D0A002A2A2A2A2A2A
S1130F802A2A2A2A2A2A2A2A2A2A2A2A0D0A0053FB
S1130F90656C656363696F6E6520756E61206F7043
S1130FA06369F36E3A200056616C6F7220414443CA
S1130FB0373A2025642E2530326420560D0A005617
S1130FC0616C6F7220414443363A2025642E2530EB
S1130FD0326420560D0A00436F6E7461646F722090
S1130FE0696E6372656D656E7461646F2E0D0A00BF
S1130FF0436F6E7461646F722064656372656D65BE
S11310006E7461646F2E0D0A0056616C6F722064F9
S1131010656C20636F6E7461646F723A2025640D91
S11310200A004F706369F36E20696E76E16C69643F
S1131030612E20506F72206661766F722C2073656A
S11310406C656363696F6E6520756E61206F706394
S111105069F36E2076E16C6964612E0D0A006E
S9030000FC
