S01400004C41425F335F4D41535445522E7372656384
S11300000C943B000C9458000C9458000C94580029
S11300100C9458000C9458000C9458000C945800FC
S11300200C9458000C9458000C9458000C945800EC
S11300300C9458000C9458000C9458000C945800DC
S11300400C9458000C9458000C9458000C945800CC
S11300500C9458000C9458000C9458000C945800BC
S11300600C9458000C9458007200790080008A00A7
S113007094009E00A80011241FBECFEFD8E0DEBF7D
S1130080CDBF11E0A0E0B1E0E6E6F9E002C00590E2
S11300900D92A836B107D9F721E0A8E6B1E001C076
S11300A01D92AE3AB207E1F70E943F010C94B104ED
S11300B00C940000E82F84FF52C084B18C6284B990
S11300C084B18F7E84B98CB580618CBDE7708E2F2E
S11300D090E08730910508F04BC0FC01EC5CFF4FC9
S11300E00C94B3018CB58C7F8CBD8DB581608DBDB6
S11300F03FC08CB58C7F8CBD8DB58E7F8DBD38C0D7
S11301008CB581608CBD8CB58D7F8CBD8DB58160C7
S11301108DBD2EC08CB581608CBD8CB58D7F8CBDA2
S11301208DB58E7F8DBD24C08CB58E7F8CBD8CB576
S113013082608CBD8DB581608DBD1AC08CB58E7FFB
S11301408CBD8CB582608CBD8DB58E7F8DBD10C08D
S11301508CB583608CBD8DB58E7F8DBD09C084B197
S1130160806184B984B1837D84B98CB58F7E8CBD64
S11301708CB5462B242B282B20642CBD08958EBDD2
S11301800DB407FEFDCF08950DB407FEFDCF8EB567
S113019008959B01AC0160E472E48FE090E00E945A
S11301A09101215031093093C5002093C40088E1A6
S11301B08093C10086E08093C20008959091C000AE
S11301C095FFFCCF8093C60008958091C0008823DA
S11301D0E4F78091C6000895CF93DF93EC0103C048
S11301E021960E94DE0088818111FACFDF91CF91A0
S11301F008955F934F937F936F939F938F9380E0C2
S113020091E09F938F931F9280E48F938EE691E009
S11302109F938F930E94B9018EE691E00E94EC00B7
S11302208DB79EB70C960FB6F8949EBF0FBE8DBFC8
S113023008958B3219F08D3279F01CC080916801D9
S1130240909169010196909369018093680182E21B
S113025091E00E94EC0008958091680190916901F9
S1130260019790936901809368018BE391E00E9468
S1130270EC00089584E591E00E94EC0008958AB1B1
S11302808C6F8AB984B1836084B98BB183708BB964
S113029085B18C7F85B920E040E060E083E50E9471
S11302A05A0060E875E280E090E00E94C90085B1E0
S11302B08B7F85B983E60E94BF000E94C40090E052
S11302C090936D0180936C0184E60E94BF000E94AC
S11302D0C40090E090936B0180936A0185B18460BF
S11302E085B9409168015091690160916A017091EA
S11302F06B0180916C0190916D010E94F9008091D5
S1130300C000882324F40E94E5000E9419012FEF05
S113031082E597E0215080409040E1F700C0000062
S1130320C6CFA1E21A2EAA1BBB1BFD010DC0AA1F3A
S1130330BB1FEE1FFF1FA217B307E407F50720F04A
S1130340A21BB30BE40BF50B661F771F881F991FC5
S11303501A9469F760957095809590959B01AC010E
S1130360BD01CF010895EE0FFF1F0590F491E02D1C
S11303700994AEE0B0E0EFEBF1E00C9488040D8951
S11303801E898F89988D26E02C831A83098397FF11
S113039002C080E090E801979E838D83AE01455EA4
S11303A05F4F698D7A8DCE0101960E94E9014D81DE
S11303B05E8157FD0AC02F813885421753070CF41C
S11303C09A01F801E20FF31F10822E96E4E00C94D8
S11303D0A404ABE0B0E0EFEEF1E00C947A046C011D
S11303E07B018A01FC0117821682838181FFCCC1C3
S11303F0CE0101963C01F6019381F70193FD8591AD
S113040093FF81917F01882309F4BAC1853239F4BD
S113041093FD859193FF81917F01853229F4B60183
S113042090E00E94E003E7CF912C212C312CFFE1D6
S1130430F315D8F08B3279F038F4803279F08332C6
S1130440A1F4232D20611DC08D3261F0803369F445
S1130450232D216016C0832D8260382EE32DE460A5
S11304603E2E2AC0F32DF8601DC037FC2DC020EDB0
S1130470280F2A3040F08E32B9F436FC81C1232D86
S11304802064322E19C036FE06C08AE0989E200DE4
S11304901124922E11C0EAE02E9E200D1124222E4A
S11304A0F32DF0623F2E08C08C3621F4832D806832
S11304B0382E02C0883641F4F70193FD859193FFED
S11304C081917F018111B3CF982F9F7D95549330F3
S11304D028F40C5F1F4F9FE399830DC0833631F0DE
S11304E0833771F0833509F059C021C0F801808148
S11304F089830E5F1F4F88248394912C530113C06A
S11305002801F2E04F0E511CF801A080B18036FEA4
S113051003C0692D70E002C06FEF7FEFC5010E9438
S1130520D5034C018201F32DFF773F2E16C028011D
S113053022E0420E511CF801A080B18036FE03C0B7
S1130540692D70E002C06FEF7FEFC5010E94CA03FE
S11305504C01F32DF0683F2E820133FC1BC0822D29
S113056090E088169906B0F4B60180E290E00E940B
S1130570E0032A94F4CFF50137FC859137FE81918D
S11305805F01B60190E00E94E00321102A9421E06B
S1130590821A91088114910471F7E8C0843611F02D
S11305A0893641F5F80137FE07C060817181828187
S11305B093810C5F1F4F08C060817181072E000C6E
S11305C0880B990B0E5F1F4FF32DFF763F2E97FF7D
S11305D009C090958095709561957F4F8F4F9F4F7F
S11305E0F0683F2E2AE030E0A3010E941C04882E0C
S11305F0861845C0853731F4232D2F7EB22E2AE08C
S113060030E025C0932D997FB92E8F36C1F018F4B0
S1130610883579F0B5C0803719F0883721F0B0C03B
S1130620E92FE061BE2EB4FE0DC0FB2DF460BF2E99
S113063009C034FE0AC0292F2660B22E06C028E065
S113064030E005C020E130E002C020E132E0F801F2
S1130650B7FE07C060817181828193810C5F1F4F57
S113066006C06081718180E090E00E5F1F4FA3019E
S11306700E941C04882E8618FB2DFF773F2E36FE21
S11306800DC0232D2E7FA22E891458F434FE0BC0E6
S113069032FC09C0832D8E7EA82E05C0B82CA32C55
S11306A003C0B82C01C0B92CA4FE0FC0FE01E80D94
S11306B0F11D8081803321F49A2D997EA92E09C0E1
S11306C0A2FE06C0B394B39404C08A2D867809F0C0
S11306D0B394A3FC11C0A0FE06C0B21488F4280C85
S11306E0922C9B180EC0B21460F4B60180E290E024
S11306F00E94E003B394F7CFB21418F42B1802C08D
S1130700982C212CA4FE10C0B60180E390E00E9436
S1130710E003A2FE17C0A1FC03C088E790E002C07A
S113072088E590E0B6010CC08A2D867859F0A1FEC8
S113073002C08BE201C080E2A7FC8DE2B60190E02A
S11307400E94E003891438F4B60180E390E00E942B
S1130750E0039A94F7CF8A94F301E80DF11D8081A8
S1130760B60190E00E94E0038110F5CF222009F445
S113077042CEB60180E290E00E94E0032A94F6CFD4
S1130780F6018681978102C08FEF9FEF2B96E2E1FD
S11307900C949604FC010590615070400110D8F748
S11307A0809590958E0F9F1F0895FC0161507040B5
S11307B001900110D8F7809590958E0F9F1F089592
S11307C00F931F93CF93DF93FB01238121FD03C07C
S11307D08FEF9FEF2CC022FF16C0468157812481E2
S11307E035814217530744F4A081B1819D012F5FE5
S11307F03F4F318320838C93268137812F5F3F4F76
S11308003783268314C08B01EC01FB010084F1853E
S1130810E02D0995892BE1F6D80116968D919C91CE
S11308201797019617969C938E931697CE01DF9196
S1130830CF911F910F910895FA01AA27283051F101
S1130840203181F1E8946F936E7F6E5F7F4F8F4FFD
S11308509F4FAF4FB1E03ED0B4E03CD0670F781F5C
S1130860891F9A1FA11D680F791F8A1F911DA11D41
S11308706A0F711D811D911DA11D20D009F468947A
S11308803F912AE0269F11243019305D3193DEF622
S1130890CF010895462F4770405D4193B3E00FD0D8
S11308A0C9F7F6CF462F4F70405D4A3318F0495DC3
S11308B031FD4052419302D0A9F7EACFB4E0A695A6
S11308C09795879577956795BA95C9F700976105C8
S11308D0710508959B01AC010A2E0694579547951E
S11308E037952795BA95C9F7620F731F841F951F13
S11308F0A01D08952F923F924F925F926F927F9224
S11309008F929F92AF92BF92CF92DF92EF92FF921B
S11309100F931F93CF93DF93CDB7DEB7CA1BDB0BC7
S11309200FB6F894DEBF0FBECDBF09942A8839886C
S113093048885F846E847D848C849B84AA84B98473
S1130940C884DF80EE80FD800C811B81AA81B9817F
S1130950CE0FD11D0FB6F894DEBF0FBECDBFED0193
S10909600895F894FFCF96
S1130966414443373A2025642C20414443363A20F7
S113097625642C20436F756E7465723A2025640DC8
S11309860A00436F6E7461646F7220696E637265E8
S11309966D656E7461646F2E0D0A00436F6E74612B
S11309A6646F722064656372656D656E7461646FED
S11309B62E0D0A00436F6D616E646F20696E76E1D9
S10B09C66C69646F2E0D0A0038
S9030000FC
