S01400004C41425F335F4D41535445522E7372656384
S11300000C9498000C94B5000C94B5000C94B500B5
S11300100C94B5000C94B5000C94B5000C94B50088
S11300200C94B5000C94B5000C94B5000C94B50078
S11300300C94B5000C94B5000C94B5000C94B50068
S11300400C94B5000C94B5000C945A070C94B500AC
S11300500C94B5000C94B5000C94B5000C94B50048
S11300600C94B5000C94B5008B01910197019D018E
S1130070A301A901AF01B501BB01C101D201D8019E
S1130080DE01E401EA01F001F601FC0102020802CA
S113009019021F0225022B02310237023D024302DC
S11300A049024F02C802CE02D402DA02E002E6029A
S11300B0EC02F202F802FE020F0315031B032103F4
S11300C027032D03330339033F03450356035C031E
S11300D0620368036E0374037A03800386038C034C
S11300E0FB03010407040D04130419041F0425046D
S11300F02B043104420448044E0454045A0460049A
S113010066046C047204780489048F0495049B04C7
S1130110A104A704AD04B304B904BF049C05A70556
S1130120B405C105CE05DB05E805F50502060F0695
S113013011241FBECFEFD8E0DEBFCDBF12E0A0E098
S1130140B1E0ECE3FFE002C005900D92A630B107E8
S1130150D9F722E0A6E0B2E001C01D92A132B207B5
S1130160E1F70E943D050C949C070C94000081303B
S113017039F481E090E090930B0280930A02089591
S113018010920B0210920A0208950F931F93CF93BB
S1130190DF93C82F80910A0290910B028130910560
S11301A091F42091060230910702232B61F422E09E
S11301B030E0309309022093080221E030E03093CC
S11301C00702209306028130910571F42091080200
S11301D0309109022230310539F481E090E09093A6
S11301E00902809308020EC0019761F4809108020D
S11301F090910902019731F482E090E09093090212
S113020080930802262F30E0E8EEF3E0C901BF0135
S11302100E946E078B01709313026093120248E1EF
S11302205CEF649FC001659F900D749F900D112435
S1130230820F931F64E670E00E946E0770931102B0
S1130240609310020E9FA0010F9F500D1E9F500D32
S11302501124E4E6E69FC001E79F900D1124FA0102
S1130260E80FF91FC9018E1B9F0B6AE070E00E9422
S11302706E0770930F0260930E02CB01880F991FD3
S1130280660F771F660F771F660F771F680F791F3A
S11302906E0F7F1F261B370B30930D0220930C0229
S11302A08AE090E00E942A0580910A0290910B0254
S11302B0892BF1F48AE090E00E942A058AE090E01C
S11302C00E942A058AE090E00E942A058AE090E0D4
S11302D00E942A0580E191E00E94190581E090E0E6
S11302E0909309028093080210920702109206026A
S11302F08091080290910902019709F0D5C0E0911C
S11303001002F0911102EA30F10508F03FC0EC5CF4
S1130310FF4F0C9482078091000190E00E942A050F
S113032035C08091010190E00E942A052FC0809180
S1130330020190E00E942A0529C08091030190E007
S11303400E942A0523C08091040190E00E942A059E
S11303501DC08091050190E00E942A0517C080917C
S1130360060190E00E942A0511C08091070190E0E7
S11303700E942A050BC08091080190E00E942A0582
S113038005C08091090190E00E942A05E0910E02C7
S1130390F0910F02EA30F10508F03FC0E25CFF4F34
S11303A00C9482078091000190E00E942A0535C0D8
S11303B08091010190E00E942A052FC080910201E2
S11303C090E00E942A0529C08091030190E00E94D8
S11303D02A0523C08091040190E00E942A051DC0D3
S11303E08091050190E00E942A0517C080910601C2
S11303F090E00E942A0511C08091070190E00E94BC
S11304002A050BC08091080190E00E942A0505C0CE
S11304108091090190E00E942A05E0910C02F0917C
S11304200D02EA30F10508F03FC0E85BFF4F0C9481
S113043082078091000190E00E942A0535C08091D6
S1130440010190E00E942A052FC08091020190E0F2
S11304500E942A0529C08091030190E00E942A0588
S113046023C08091040190E00E942A051DC0809160
S1130470050190E00E942A0517C08091060190E0D2
S11304800E942A0511C08091070190E00E942A056C
S11304900BC08091080190E00E942A0505C080915C
S11304A0090190E00E942A052C2F30E0C8EED3E029
S11304B0C901BE010E946E078B0170931302609301
S11304C0120248E15CEF649FC001659F900D749F28
S11304D0900D1124820F931F64E670E00E946E0752
S11304E070931102609310020C9FF0010D9FF00DA8
S11304F01C9FF00D112444E6469FC001479F900DB8
S11305001124E80FF91FC9018E1B9F0B6AE070E0EC
S11305100E946E0770930F0260930E02CB01880F46
S1130520991F660F771F660F771F660F771F680F77
S1130530791F6E0F7F1F261B370B30930D022093FC
S11305400C0280910A0290910B02892B41F48AE0FB
S113055090E00E942A0588E291E00E9419058091AA
S1130560080290910902029739F080910A02909151
S11305700B02892B09F0D5C0E0911002F091110211
S1130580EA30F10508F03FC0EE5AFF4F0C948207A1
S11305908091000190E00E942A0535C080910101FC
S11305A090E00E942A052FC08091020190E00E94F1
S11305B02A0529C08091030190E00E942A0523C0E6
S11305C08091040190E00E942A051DC080910501DC
S11305D090E00E942A0517C08091060190E00E94D5
S11305E02A0511C08091070190E00E942A050BC0E2
S11305F08091080190E00E942A0505C080910901BC
S113060090E00E942A05E0910E02F0910F02EA3078
S1130610F10508F03FC0E45AFF4F0C948207809123
S1130620000190E00E942A0535C08091010190E00C
S11306300E942A052FC08091020190E00E942A05A1
S113064029C08091030190E00E942A0523C0809173
S1130650040190E00E942A051DC08091050190E0EC
S11306600E942A0517C08091060190E00E942A0585
S113067011C08091070190E00E942A050BC080916F
S1130680080190E00E942A0505C08091090190E0CC
S11306900E942A05E0910C02F0910D02EA30F10566
S11306A008F03FC0EA59FF4F0C9482078091000183
S11306B090E00E942A0535C08091010190E00E94DB
S11306C02A052FC08091020190E00E942A0529C0CA
S11306D08091030190E00E942A0523C080910401C7
S11306E090E00E942A051DC08091050190E00E94BF
S11306F02A0517C08091060190E00E942A0511C0C6
S11307008091070190E00E942A050BC080910801A6
S113071090E00E942A0505C08091090190E00E94A2
S11307202A05DF91CF911F910F9108950F931F9385
S1130730CF93DF93282F30E008EE13E0C901B8010E
S11307400E946E07EB01709313026093120248E15A
S11307505CEF649FC001659F900D749F900D112400
S1130760820F931F64E670E00E946E07709311027B
S113077060931002C09FF001C19FF00DD09FF00D57
S1130780112444E6469FC001479F900D1124E80FB1
S1130790F91FC9018E1B9F0B6AE070E00E946E076F
S11307A070930F0260930E02CB01880F991F660F9E
S11307B0771F660F771F660F771F680F791F6E0FFD
S11307C07F1F261B370B30930D0220930C028AE007
S11307D090E00E942A0580E491E00E941905E091CE
S11307E01002F0911102EA30F10508F03FC0E0591F
S11307F0FF4F0C9482078091000190E00E942A052B
S113080035C08091010190E00E942A052FC080919B
S1130810020190E00E942A0529C08091030190E022
S11308200E942A0523C08091040190E00E942A05B9
S11308301DC08091050190E00E942A0517C0809197
S1130840060190E00E942A0511C08091070190E002
S11308500E942A050BC08091080190E00E942A059D
S113086005C08091090190E00E942A05E0910E02E2
S1130870F0910F02EA30F10508F03FC0E658FF4F4F
S11308800C9482078091000190E00E942A0535C0F3
S11308908091010190E00E942A052FC080910201FD
S11308A090E00E942A0529C08091030190E00E94F3
S11308B02A0523C08091040190E00E942A051DC0EE
S11308C08091050190E00E942A0517C080910601DD
S11308D090E00E942A0511C08091070190E00E94D7
S11308E02A050BC08091080190E00E942A0505C0EA
S11308F08091090190E00E942A05E0910C02F09198
S11309000D02EA30F10508F03FC0EC57FF4F0C949C
S113091082078091000190E00E942A0535C08091F1
S1130920010190E00E942A052FC08091020190E00D
S11309300E942A0529C08091030190E00E942A05A3
S113094023C08091040190E00E942A051DC080917B
S1130950050190E00E942A0517C08091060190E0ED
S11309600E942A0511C08091070190E00E942A0587
S11309700BC08091080190E00E942A0505C0809177
S1130980090190E00E942A05DF91CF911F910F91F8
S1130990089584B18C6284B984B18F7E84B98CB596
S11309A08F7D8CBD8CB5877F8CBD8CB58B7F8CBDCA
S11309B08CB581608CBD8CB58D7F8CBD8DB58E7FE3
S11309C08DBD8CB580618CBD8CB580648CBD089563
S11309D0823019F485B18B7F85B90895823019F47A
S11309E085B1846085B908958EBD0DB407FEFDCF31
S11309F008950DB407FEFDCF8EB508958AB18E7F9C
S1130A008AB98AB182608AB91092C000E1ECF0E040
S1130A101082808188698083E2ECF0E0108280811A
S1130A208660808387E690E09093C5008093C4003D
S1130A300895AC0120E007C09091C00095FFFCCF61
S1130A403093C6002F5FFA01E20FF11D308131119E
S1130A50F3CF08959091C00095FFFCCF8093C6001A
S1130A600895F8948FEF8AB983E084B90E94FE0454
S1130A700E94C9041BB8789408950E9431058FE13F
S1130A809EE40197F1F700C00000809114028235C2
S1130A9031F481E090E090931E0280931D028091D6
S1130AA01D0290911E02892B69F580911B02909181
S1130AB01C02892B39F585E591E00E9419058AE02D
S1130AC00E942A058DE00E942A058AE00E942A05D8
S1130AD08FE791E00E9419058AE00E942A058DE0C3
S1130AE00E942A058CE991E00E9419058AE00E947F
S1130AF02A058DE00E942A0581E090E090931E0271
S1130B0080931D0280911402833609F4DAC0809127
S1130B10150290911602019709F0D3C0E0911402D6
S1130B208E2F90E0FC01F097EA30F10508F083C0C5
S1130B30E257FF4F0C948207E0911902F0911A02D8
S1130B40EE0FFF1FE65FFE4F1182108274C0E0912A
S1130B501902F0911A02EE0FFF1FE65FFE4F81E0CB
S1130B6090E09183808367C0E0911902F0911A02AA
S1130B70EE0FFF1FE65FFE4F82E090E091838083DB
S1130B805AC0E0911902F0911A02EE0FFF1FE65FBE
S1130B90FE4F83E090E0918380834DC0E091190281
S1130BA0F0911A02EE0FFF1FE65FFE4F84E090E023
S1130BB09183808340C0E0911902F0911A02EE0FF4
S1130BC0FF1FE65FFE4F85E090E09183808333C092
S1130BD0E0911902F0911A02EE0FFF1FE65FFE4F3B
S1130BE086E090E09183808326C0E0911902F09121
S1130BF01A02EE0FFF1FE65FFE4F87E090E091833D
S1130C00808319C0E0911902F0911A02EE0FFF1FC0
S1130C10E65FFE4F88E090E0918380830CC0E09112
S1130C201902F0911A02EE0FFF1FE65FFE4F89E0F2
S1130C3090E0918380838091190290911A02029727
S1130C40C4F433C0AC01440F551F880F991F880F9B
S1130C50991F880F991F840F951FF901EE0FFF1F2D
S1130C60E65FFE4F40815181840F951F2F5F3F4FF8
S1130C7004C020E030E080E090E02330310514F33C
S1130C80282F220F220F2BB9082E892F000C881F22
S1130C90990B000C881F991F85B910921A021092A3
S1130CA01902109216021092150280911902909165
S1130CB01A02019690931A028093190283E6809394
S1130CC0140280911402882309F4D9CE809115026C
S1130CD090911602892B09F0D2CE809114028134AE
S1130CE069F481E090E0909316028093150283E604
S1130CF08093140210921A02109219028091140225
S1130D00813331F480911B0290911C02892B21F0D4
S1130D1080911402813569F580911402813521F4A2
S1130D2081E00E94B70003C080E00E94B70082E027
S1130D300E94E80481E00E94F4040E94F904809374
S1130D40200282E00E94EE0482E00E94E80482E035
S1130D500E94F4040E94F90480931F0282E00E941E
S1130D60EE0460911F02809120020E94C50010923F
S1130D701402809114028233C1F481E090E09093D4
S1130D801C0280931B028BEB91E00E9419058AE000
S1130D900E942A058DE00E942A058AE00E942A0505
S1130DA08DE00E942A0510921402809114028B3265
S1130DB081F580911B0290911C02019751F580915D
S1130DC017029091180201969093180280931702CB
S1130DD08F3F910534F08FEF90E090931802809349
S1130DE01702C7E1D2E088810E9496038881880FA8
S1130DF0880F8BB98091170290911802082E892FC1
S1130E00000C881F990B000C881F991F85B910923C
S1130E101402809114028D3271F580911B0290911D
S1130E201C02019741F580911702909118020197D5
S1130E3090931802809317021816190624F0109242
S1130E40180210921702C7E1D2E088810E9496032B
S1130E508881880F880F8BB98091170290911802AE
S1130E60082E892F000C881F990B000C881F991FCE
S1130E7085B91092140280911402853609F0FFCDD1
S1130E801092140210921C0210921B0210921E0265
S1130E9010921D028AE00E942A058AE00E942A0517
S1130EA08AE00E942A058AE00E942A058AE00E94BC
S1130EB02A05E5CD1F920F920FB60F9211248F933E
S1130EC08091C600809314028091C00085FFFCCFFE
S1130ED08F910F900FBE0F901F90189597FB072EC0
S1130EE016F4009407D077FD09D00E94880707FC08
S1130EF005D03EF4909581959F4F08957095619526
S1130F007F4F0895EE0FFF1F0590F491E02D099493
S1130F10AA1BBB1B51E107C0AA1FBB1FA617B7071B
S1130F2010F0A61BB70B881F991F5A95A9F7809537
S10F0F309095BC01CD010895F894FFCF0A
S1130F3C303132333435363738390000050005008A
S1130F4C56616C6F7220706F74656E63696F6D653A
S1130F5C74726F20313A200056616C6F7220706F7E
S1130F6C74656E63696F6D6574726F20323A20001C
S1130F7C56616C6F722044656C20636F6E7461648F
S1130F8C6F723A20000A0D20202020202A2A2A2AB7
S1130F9C2A2A2A2A2A2A2A2A2A2A4D454E552A2A14
S1130FAC2A2A2A2A2A2A2A2A2A2A2A2A2A2A0020C5
S1130FBC202020202020202020506F74656E63692F
S1130FCC6F6D6574726F20414443360020202020DD
S1130FDC202020202020506F74656E63696F6D652E
S1130FEC74726F20414443370A0D00507265736963
S1130FFC6F6E65202B207061726120696E6372655F
S113100C6D656E7461722C202D2070617261206488
S113101C656372656D656E7461722C2065207061F8
S113102C7261206D656E75207072696E6369706192
S109103C6C200A0D000007
S9030000FC
