S01400004C41425F335F4D41535445522E7372656384
S11300000C943B000C9458000C9458000C94580029
S11300100C9458000C9458000C9458000C945800FC
S11300200C9458000C9458000C9458000C945800EC
S11300300C9458000C9458000C9458000C945800DC
S11300400C9458000C9458000C9458000C945800CC
S11300500C9458000C9458000C9458000C945800BC
S11300600C9458000C9458007200790080008A00A7
S113007094009E00A80011241FBECFEFD8E0DEBF7D
S1130080CDBF12E0A0E0B1E0E6EBFAE002C00590DB
S11300900D92AC38B107D9F722E0ACE8B2E001C068
S11300A01D92A03DB207E1F70E94F3010C9459059B
S11300B00C940000E82F84FF52C084B18C6284B990
S11300C084B18F7E84B98CB580618CBDE7708E2F2E
S11300D090E08730910508F04BC0FC01EC5CFF4FC9
S11300E00C945B028CB58C7F8CBD8DB581608DBD0D
S11300F03FC08CB58C7F8CBD8DB58E7F8DBD38C0D7
S11301008CB581608CBD8CB58D7F8CBD8DB58160C7
S11301108DBD2EC08CB581608CBD8CB58D7F8CBDA2
S11301208DB58E7F8DBD24C08CB58E7F8CBD8CB576
S113013082608CBD8DB581608DBD1AC08CB58E7FFB
S11301408CBD8CB582608CBD8DB58E7F8DBD10C08D
S11301508CB583608CBD8DB58E7F8DBD09C084B197
S1130160806184B984B1837D84B98CB58F7E8CBD64
S11301708CB5462B242B282B20642CBD08958EBDD2
S113018008950DB407FEFDCF8EB508959B01AC0113
S113019060E472E48FE090E00E943902215031095A
S11301A03093C5002093C40088E18093C10086E0A9
S11301B08093C20008959091C00095FFFCCF809376
S11301C0C60008958091C0008823E4F78091C6009A
S11301D00895CF93DF93EC0103C021960E94DB00C6
S11301E088818111FACFDF91CF91089580E091E069
S11301F00E94E90085E191E00E94E90082E391E038
S11302000E94E9008FE491E00E94E9008DE691E00C
S11302100E94E9008BE891E00E94E9008BEA91E0FA
S11302200E94E9008FEB91E00E94E9000895813378
S113023071F038F48B3209F44AC08D3209F455C098
S113024082C0823321F1843309F45DC07CC0809183
S11302508F028F9380918E028F9387ED91E09F930D
S11302608F931F9280E48F9380E992E09F938F9302
S11302700E94610280E992E00E94E9008DB79EB776
S113028008960FB6F8949EBF0FBE8DBF60C08091D4
S11302908F028F9380918E028F938EEE91E09F93C5
S11302A08F931F9280E48F9380E992E09F938F93C2
S11302B00E94610280E992E00E94E9008DB79EB736
S11302C008960FB6F8949EBF0FBE8DBF40C08091B4
S11302D08C0290918D02019690938D0280938C02F2
S11302E085E092E00E94E90032C080918C029091F6
S11302F08D02019790938D0280938C028EE192E09F
S11303000E94E90024C080918D028F9380918C0219
S11303108F9387E392E09F938F931F9280E48F9350
S113032080E992E09F938F930E94610280E992E0BA
S11303300E94E9008DB79EB708960FB6F8949EBF49
S11303400FBE8DBF04C080E592E00E94E9000E94C8
S1130350F6000895882324F495B1926095B903C0FA
S113036095B19D7F95B986FF04C095B1916095B90B
S113037003C095B19E7F95B985FF04C09BB1906879
S11303809BB903C09BB19F779BB984FF04C09BB109
S113039090649BB903C09BB19F7B9BB983FF04C04E
S11303A09BB190629BB903C09BB19F7D9BB982FFB7
S11303B004C09BB190619BB903C09BB19F7E9BB964
S11303C081FF04C09BB198609BB903C09BB1977F28
S11303D09BB980FF04C08BB184608BB908958BB145
S11303E08B7F8BB908958AB18C6F8AB984B183608D
S11303F084B98BB183708BB985B18C7F85B920E0CA
S113040040E060E082E50E945A0060E875E280E026
S113041090E00E94C6000E94F60085B18B7F85B9EA
S113042083E60E94BF000E94C10090E090938F0277
S113043080938E0280918C020E94AA0185B184600F
S113044085B98091C000882354F40E94E200609131
S11304508E0270918F02AB0190E00E9417012FEF82
S113046082E597E0215080409040E1F700C0000011
S1130470D4CFA1E21A2EAA1BBB1BFD010DC0AA1FDB
S1130480BB1FEE1FFF1FA217B307E407F50720F0F9
S1130490A21BB30BE40BF50B661F771F881F991F74
S11304A01A9469F760957095809590959B01AC01BD
S11304B0BD01CF010895EE0FFF1F0590F491E02DCB
S11304C00994AEE0B0E0E7E6F2E00C9430050D8963
S11304D01E898F89988D26E02C831A83098397FFC0
S11304E002C080E090E801979E838D83AE01455E53
S11304F05F4F698D7A8DCE0101960E9491024D81E4
S11305005E8157FD0AC02F813885421753070CF4CA
S11305109A01F801E20FF31F10822E96E4E00C9486
S11305204C05ABE0B0E0E7E9F2E00C9422056C0185
S11305307B018A01FC0117821682838181FFCCC171
S1130540CE0101963C01F6019381F70193FD85915B
S113055093FF81917F01882309F4BAC1853239F46C
S113056093FD859193FF81917F01853229F4B60132
S113057090E00E948804E7CF912C212C312CFFE1DC
S1130580F315D8F08B3279F038F4803279F0833275
S1130590A1F4232D20611DC08D3261F0803369F4F4
S11305A0232D216016C0832D8260382EE32DE46054
S11305B03E2E2AC0F32DF8601DC037FC2DC020ED5F
S11305C0280F2A3040F08E32B9F436FC81C1232D35
S11305D02064322E19C036FE06C08AE0989E200D93
S11305E01124922E11C0EAE02E9E200D1124222EF9
S11305F0F32DF0623F2E08C08C3621F4832D8068E1
S1130600382E02C0883641F4F70193FD859193FF9B
S113061081917F018111B3CF982F9F7D95549330A1
S113062028F40C5F1F4F9FE399830DC0833631F08C
S1130630833771F0833509F059C021C0F8018081F6
S113064089830E5F1F4F88248394912C530113C018
S11306502801F2E04F0E511CF801A080B18036FE53
S113066003C0692D70E002C06FEF7FEFC5010E94E7
S11306707D044C018201F32DFF773F2E16C0280123
S113068022E0420E511CF801A080B18036FE03C066
S1130690692D70E002C06FEF7FEFC5010E94720404
S11306A04C01F32DF0683F2E820133FC1BC0822DD8
S11306B090E088169906B0F4B60180E290E00E94BA
S11306C088042A94F4CFF50137FC859137FE819193
S11306D05F01B60190E00E94880421102A9421E071
S11306E0821A91088114910471F7E8C0843611F0DC
S11306F0893641F5F80137FE07C060817181828136
S113070093810C5F1F4F08C060817181072E000C1C
S1130710880B990B0E5F1F4FF32DFF763F2E97FF2B
S113072009C090958095709561957F4F8F4F9F4F2D
S1130730F0683F2E2AE030E0A3010E94C404882E12
S1130740861845C0853731F4232D2F7EB22E2AE03A
S113075030E025C0932D997FB92E8F36C1F018F45F
S1130760883579F0B5C0803719F0883721F0B0C0EA
S1130770E92FE061BE2EB4FE0DC0FB2DF460BF2E48
S113078009C034FE0AC0292F2660B22E06C028E014
S113079030E005C020E130E002C020E132E0F801A1
S11307A0B7FE07C060817181828193810C5F1F4F06
S11307B006C06081718180E090E00E5F1F4FA3014D
S11307C00E94C404882E8618FB2DFF773F2E36FE28
S11307D00DC0232D2E7FA22E891458F434FE0BC095
S11307E032FC09C0832D8E7EA82E05C0B82CA32C04
S11307F003C0B82C01C0B92CA4FE0FC0FE01E80D43
S1130800F11D8081803321F49A2D997EA92E09C08F
S1130810A2FE06C0B394B39404C08A2D867809F06E
S1130820B394A3FC11C0A0FE06C0B21488F4280C33
S1130830922C9B180EC0B21460F4B60180E290E0D2
S11308400E948804B394F7CFB21418F42B1802C092
S1130850982C212CA4FE10C0B60180E390E00E94E5
S11308608804A2FE17C0A1FC03C088E790E002C080
S113087088E590E0B6010CC08A2D867859F0A1FE77
S113088002C08BE201C080E2A7FC8DE2B60190E0D9
S11308900E948804891438F4B60180E390E00E9431
S11308A088049A94F7CF8A94F301E80DF11D8081AE
S11308B0B60190E00E9488048110F5CF222009F44B
S11308C042CEB60180E290E00E9488042A94F6CFDA
S11308D0F6018681978102C08FEF9FEF2B96E2E1AC
S11308E00C943E05FC010590615070400110D8F74E
S11308F0809590958E0F9F1F0895FC016150704064
S113090001900110D8F7809590958E0F9F1F089540
S11309100F931F93CF93DF93FB01238121FD03C02A
S11309208FEF9FEF2CC022FF16C046815781248190
S113093035814217530744F4A081B1819D012F5F93
S11309403F4F318320838C93268137812F5F3F4F24
S11309503783268314C08B01EC01FB010084F185ED
S1130960E02D0995892BE1F6D80116968D919C917D
S11309701797019617969C938E931697CE01DF9145
S1130980CF911F910F910895FA01AA27283051F1B0
S1130990203181F1E8946F936E7F6E5F7F4F8F4FAC
S11309A09F4FAF4FB1E03ED0B4E03CD0670F781F0B
S11309B0891F9A1FA11D680F791F8A1F911DA11DF0
S11309C06A0F711D811D911DA11D20D009F4689429
S11309D03F912AE0269F11243019305D3193DEF6D1
S11309E0CF010895462F4770405D4193B3E00FD087
S11309F0C9F7F6CF462F4F70405D4A3318F0495D72
S1130A0031FD4052419302D0A9F7EACFB4E0A69554
S1130A109795879577956795BA95C9F70097610576
S1130A20710508959B01AC010A2E069457954795CC
S1130A3037952795BA95C9F7620F731F841F951FC1
S1130A40A01D08952F923F924F925F926F927F92D2
S1130A508F929F92AF92BF92CF92DF92EF92FF92CA
S1130A600F931F93CF93DF93CDB7DEB7CA1BDB0B76
S1130A700FB6F894DEBF0FBECDBF09942A8839881B
S1130A8048885F846E847D848C849B84AA84B98422
S1130A90C884DF80EE80FD800C811B81AA81B9812E
S1130AA0CE0FD11D0FB6F894DEBF0FBECDBFED0142
S1090AB00895F894FFCF45
S1130AB60D0A2A2A2A2A2A204D656E75202A2A2AF0
S1130AC62A2A0D0A00312E204D6F7374726172202A
S1130AD676616C6F72657320646520414443370DFB
S1130AE60A00322E204D6F73747261722076616C27
S1130AF66F72657320646520414443360D0A002BEA
S1130B062E20496E6372656D656E74617220636F23
S1130B166E7461646F7220282B290D0A002D2E2015
S1130B2644656372656D656E74617220636F6E747D
S1130B3661646F7220282D290D0A00342E204D6F12
S1130B4673747261722076616C6F722064656C20B6
S1130B56636F6E7461646F720D0A002A2A2A2A2A48
S1130B662A2A2A2A2A2A2A2A2A2A2A2A0D0A005319
S1130B76656C656363696F6E6520756E61206F7061
S1130B866369F36E3A200056616C6F726573204197
S1130B96444320414443373A2025750D0A005661E3
S1130BA66C6F7265732041444320414443363A20B6
S1130BB625750D0A00436F6E7461646F7220696E49
S1130BC66372656D656E7461646F2E0D0A00436F02
S1130BD66E7461646F722064656372656D656E74AC
S1130BE661646F2E0D0A0056616C6F722064656C29
S1130BF620636F6E7461646F723A2025640D0A0077
S1130C064F706369F36E20696E76E16C6964612ED8
S1130C1620506F72206661766F722C2073656C6546
S1130C266363696F6E6520756E61206F706369F327
S10F0C366E2076E16C6964612E0D0A00EA
S9030000FC
