S01300004C41425F335F534C4156452E73726563D6
S11300000C943B000C9458000C9458000C94580029
S11300100C9458000C9458000C9458000C945800FC
S11300200C9458000C9458000C9458000C945800EC
S11300300C9458000C9458000C9458000C945800DC
S11300400C9458000C94F7010C9458000C9458002C
S11300500C9458000C9458000C9458000C945800BC
S11300600C9458000C945800B700BE00C500CF0093
S1130070D900E300ED0011241FBECFEFD8E0DEBFAE
S1130080CDBF11E0A0E0B1E0EEECFDE002C00590D0
S11300900D92AC3BB107D9F722E0ACEBB1E001C063
S11300A01D92A530B207E1F70E9477010C94E50692
S11300B00C94000080E480937C0087E880937A00AD
S11300C00895ECE7F0E09081987F8770892B808316
S11300D0EAE7F0E080818064808380917A0086FD85
S11300E0FCCF80917800909179000895CF92DF92AF
S11300F0EF92FF920F931F93CF93DF936C017B01D9
S1130100D42FC0E011C08C2F90E08C01000F111F80
S11301100E0D1F1DF601E80FF91F80810E9461007A
S1130120F80191838083CF5FCD1768F3DF91CF917E
S11301301F910F91FF90EF90DF90CF900895E82FDB
S113014084FF52C084B18C6284B984B18F7E84B937
S11301508CB580618CBDE7708E2F90E0873091055F
S113016008F04BC0FC01EC5CFF4F0C94E7038CB52A
S11301708C7F8CBD8DB581608DBD3FC08CB58C7F6F
S11301808CBD8DB58E7F8DBD38C08CB581608CBD26
S11301908CB58D7F8CBD8DB581608DBD2EC08CB529
S11301A081608CBD8CB58D7F8CBD8DB58E7F8DBDF2
S11301B024C08CB58E7F8CBD8CB582608CBD8DB512
S11301C081608DBD1AC08CB58E7F8CBD8CB582606C
S11301D08CBD8DB58E7F8DBD10C08CB583608CBDFC
S11301E08DB58E7F8DBD09C084B1806184B984B121
S11301F0837D84B98CB58F7E8CBD8CB5462B242B26
S1130200282B20642CBD08958EBD0DB407FEFDCFB0
S113021008959B01AC0160E472E48FE090E00E94D9
S1130220C503215031093093C5002093C40088E1EF
S11302308093C10086E08093C20008959091C0002D
S113024095FFFCCF8093C60008958091C000882359
S1130250E4F78091C6000895CF93DF93EC0103C0C7
S113026021960E941E0188818111FACFDF91CF91DE
S1130270089580E091E00E942C0185E191E00E94C4
S11302802C0181E391E00E942C0185E491E00E941D
S11302902C010895813321F5E1E0F2E081818F930F
S11302A080818F9383818F9382818F938DE591E0F9
S11302B09F938F931F9280E48F938FEB91E09F9392
S11302C08F930E94ED038FEB91E00E942C018DB778
S11302D09EB70A960FB6F8949EBF0FBE8DBF04C09A
S11302E080E891E00E942C010E9439010895CF9387
S11302F0DF9300D0CDB7DEB78AB18C6F8AB984B1F1
S1130300836084B98BB183708BB985B18C7F85B9D7
S113031020E040E060E080E40E949F000E945A00D8
S113032080E895E20E94090187E0898386E08A8358
S11303308CB580688CBD78940E94390142E061E0FC
S113034072E0CE0101960E94760001E012E0F8010D
S11303506081718180E090E00E94CA0220E030E078
S113036040EA50E40E94580320E030E840E654E4B8
S11303700E94220220E030E048EC52E40E9458033C
S11303800E9494027093BE016093BD01F8016281E2
S1130390738180E090E00E94CA0220E030E040EAED
S11303A050E40E94580320E030E840E654E40E9400
S11303B0220220E030E048EC52E40E9458030E94FC
S11303C09402709300026093FF018091C00088231F
S11303D024F40E9425010E944A01FFEF29E688E1E6
S11303E0F15020408040E1F700C00000A7CF1F92E9
S11303F00F920FB60F9211242F933F934F935F9355
S11304006F937F938F939F93AF93BF93EF93FF93D8
S11304108EB58093BC01833621F4809103020E943F
S11304200401FF91EF91BF91AF919F918F917F91C3
S11304306F915F914F913F912F910F900FBE0F904D
S11304401F9018950E9436020C941E030E941703F5
S113045058F00E94100340F029F45F3F29F00C94F7
S1130460070351110C9452030C940D030E942F03A3
S113047068F39923B1F3552391F3951B550BBB27CF
S1130480AA2762177307840738F09F5F5F4F220F14
S1130490331F441FAA1FA9F335D00E2E3AF0E0E80B
S11304A032D091505040E695001CCAF72BD0FE2F55
S11304B029D0660F771F881FBB1F261737074807E9
S11304C0AB07B0E809F0BB0B802DBF01FF279358A1
S11304D05F4F3AF09E3F510578F00C9407030C945B
S11304E052035F3FE4F3983ED4F38695779567957E
S11304F0B795F7959F5FC9F7880F911D96958795D6
S113050097F90895E1E0660F771F881FBB1F6217F4
S113051073078407BA0720F0621B730B840BBA0BB2
S1130520EE1F88F7E09508950E949B026894B1112C
S11305300C94520308950E94370388F09F5798F053
S1130540B92F9927B751B0F0E1F0660F771F881FD4
S1130550991F1AF0BA95C9F714C0B13091F00E94EE
S11305605103B1E008950C945103672F782F882725
S1130570B85F39F0B93FCCF3869577956795B39515
S1130580D9F73EF490958095709561957F4F8F4F84
S11305909F4F0895E89409C097FB3EF49095809589
S11305A0709561957F4F8F4F9F4F9923A9F0F92F35
S11305B096E9BB279395F695879577956795B795B3
S11305C0F111F8CFFAF4BB0F11F460FF1BC06F5F99
S11305D07F4F8F4F9F4F16C0882311F096E911C0AB
S11305E0772321F09EE8872F762F05C0662371F0CC
S11305F096E8862F70E060E02AF09A95660F771FE0
S1130600881FDAF7880F9695879597F9089597F9D3
S11306109F6780E870E060E008959FEF80EC0895A4
S113062000240A94161617061806090608950024CD
S11306300A9412161306140605060895092E039447
S1130640000C11F4882352F0BB0F40F4BF2B11F4BB
S113065060FF04C06F5F7F4F8F4F9F4F089557FD1A
S11306609058440F551F59F05F3F71F04795880F1C
S113067097FB991F61F09F3F79F0879508951216B3
S113068013061406551FF2CF4695F1DF08C016165F
S113069017061806991FF1CF869571056105089410
S11306A00895E894BB2766277727CB0197F9089527
S11306B00E946B030C941E030E94100338F00E94E6
S11306C0170320F0952311F00C9407030C940D03E9
S11306D011240C9452030E942F0370F3959FC1F3CD
S11306E0950F50E0551F629FF001729FBB27F00DDC
S11306F0B11D639FAA27F00DB11DAA1F649F662731
S1130700B00DA11D661F829F2227B00DA11D621F7F
S1130710739FB00DA11D621F839FA00D611D221F39
S1130720749F3327A00D611D231F849F600D211D1D
S1130730822F762F6A2F11249F5750409AF0F1F0A0
S113074088234AF0EE0FFF1FBB1F661F771F881F09
S113075091505040A9F79E3F510580F00C94070337
S11307600C9452035F3FE4F3983ED4F38695779557
S11307706795B795F795E7959F5FC1F7FE2B880FAF
S1130780911D9695879597F90895A1E21A2EAA1BB3
S1130790BB1BFD010DC0AA1FBB1FEE1FFF1FA2172D
S11307A0B307E407F50720F0A21BB30BE40BF50B2A
S11307B0661F771F881F991F1A9469F760957095B3
S11307C0809590959B01AC01BD01CF010895EE0F7A
S11307D0FF1F0590F491E02D0994AEE0B0E0E3EF43
S11307E0F3E00C94BC060D891E898F89988D26E050
S11307F02C831A83098397FF02C080E090E8019755
S11308009E838D83AE01455E5F4F698D7A8DCE01E7
S113081001960E941D044D815E8157FD0AC02F81FF
S11308203885421753070CF49A01F801E20FF31FBD
S113083010822E96E4E00C94D806ABE0B0E0E3E23C
S1130840F4E00C94AE066C017B018A01FC01178272
S11308501682838181FFCCC1CE0101963C01F60151
S11308609381F70193FD859193FF81917F01882303
S113087009F4BAC1853239F493FD859193FF8191CE
S11308807F01853229F4B60190E00E941406E7CF77
S1130890912C212C312CFFE1F315D8F08B3279F017
S11308A038F4803279F08332A1F4232D20611DC005
S11308B08D3261F0803369F4232D216016C0832DBD
S11308C08260382EE32DE4603E2E2AC0F32DF860BA
S11308D01DC037FC2DC020ED280F2A3040F08E3289
S11308E0B9F436FC81C1232D2064322E19C036FEA2
S11308F006C08AE0989E200D1124922E11C0EAE0D1
S11309002E9E200D1124222EF32DF0623F2E08C0BE
S11309108C3621F4832D8068382E02C0883641F449
S1130920F70193FD859193FF81917F018111B3CFED
S1130930982F9F7D9554933028F40C5F1F4F9FE3AD
S113094099830DC0833631F0833771F0833509F014
S113095059C021C0F801808189830E5F1F4F88240C
S11309608394912C530113C02801F2E04F0E511CC3
S1130970F801A080B18036FE03C0692D70E002C08A
S11309806FEF7FEFC5010E9409064C018201F32D30
S1130990FF773F2E16C0280122E0420E511CF801B9
S11309A0A080B18036FE03C0692D70E002C06FEFF5
S11309B07FEFC5010E94FE054C01F32DF0683F2E28
S11309C0820133FC1BC0822D90E088169906B0F496
S11309D0B60180E290E00E9414062A94F4CFF50157
S11309E037FC859137FE81915F01B60190E00E944A
S11309F0140621102A9421E0821A9108811491048A
S1130A0071F7E8C0843611F0893641F5F80137FEF4
S1130A1007C060817181828193810C5F1F4F08C080
S1130A2060817181072E000C880B990B0E5F1F4F9C
S1130A30F32DFF763F2E97FF09C090958095709512
S1130A4061957F4F8F4F9F4FF0683F2E2AE030E033
S1130A50A3010E945006882E861845C0853731F4BC
S1130A60232D2F7EB22E2AE030E025C0932D997FCE
S1130A70B92E8F36C1F018F4883579F0B5C08037B7
S1130A8019F0883721F0B0C0E92FE061BE2EB4FE22
S1130A900DC0FB2DF460BF2E09C034FE0AC0292FFF
S1130AA02660B22E06C028E030E005C020E130E028
S1130AB002C020E132E0F801B7FE07C06081718115
S1130AC0828193810C5F1F4F06C06081718180E039
S1130AD090E00E5F1F4FA3010E945006882E8618D7
S1130AE0FB2DFF773F2E36FE0DC0232D2E7FA22E29
S1130AF0891458F434FE0BC032FC09C0832D8E7E59
S1130B00A82E05C0B82CA32C03C0B82C01C0B92C46
S1130B10A4FE0FC0FE01E80DF11D8081803321F495
S1130B209A2D997EA92E09C0A2FE06C0B394B3944F
S1130B3004C08A2D867809F0B394A3FC11C0A0FEEA
S1130B4006C0B21488F4280C922C9B180EC0B21460
S1130B5060F4B60180E290E00E941406B394F7CFEB
S1130B60B21418F42B1802C0982C212CA4FE10C027
S1130B70B60180E390E00E941406A2FE17C0A1FC17
S1130B8003C088E790E002C088E590E0B6010CC09D
S1130B908A2D867859F0A1FE02C08BE201C080E262
S1130BA0A7FC8DE2B60190E00E941406891438F483
S1130BB0B60180E390E00E9414069A94F7CF8A94D9
S1130BC0F301E80DF11D8081B60190E00E94140646
S1130BD08110F5CF222009F442CEB60180E290E0E4
S1130BE00E9414062A94F6CFF6018681978102C0EA
S1130BF08FEF9FEF2B96E2E10C94CA06FC0105905F
S1130C00615070400110D8F7809590958E0F9F1F0A
S1130C100895FC016150704001900110D8F780954F
S1130C2090958E0F9F1F08950F931F93CF93DF937B
S1130C30FB01238121FD03C08FEF9FEF2CC022FF16
S1130C4016C046815781248135814217530744F4E5
S1130C50A081B1819D012F5F3F4F318320838C930D
S1130C60268137812F5F3F4F3783268314C08B0142
S1130C70EC01FB010084F185E02D0995892BE1F657
S1130C80D80116968D919C911797019617969C936F
S1130C908E931697CE01DF91CF911F910F910895F6
S1130CA0FA01AA27283051F1203181F1E8946F9399
S1130CB06E7F6E5F7F4F8F4F9F4FAF4FB1E03ED03F
S1130CC0B4E03CD0670F781F891F9A1FA11D680FDD
S1130CD0791F8A1F911DA11D6A0F711D811D911D10
S1130CE0A11D20D009F468943F912AE0269F112485
S1130CF03019305D3193DEF6CF010895462F4770E9
S1130D00405D4193B3E00FD0C9F7F6CF462F4F7043
S1130D10405D4A3318F0495D31FD4052419302D0A1
S1130D20A9F7EACFB4E0A695979587957795679547
S1130D30BA95C9F700976105710508959B01AC0147
S1130D400A2E06945795479537952795BA95C9F76E
S1130D50620F731F841F951FA01D08952F923F9249
S1130D604F925F926F927F928F929F92AF92BF92B7
S1130D70CF92DF92EF92FF920F931F93CF93DF9363
S1130D80CDB7DEB7CA1BDB0B0FB6F894DEBF0FBEC0
S1130D90CDBF09942A88398848885F846E847D840D
S1130DA08C849B84AA84B984C884DF80EE80FD800F
S1130DB00C811B81AA81B981CE0FD11D0FB6F89485
S1110DC0DEBF0FBECDBFED010895F894FFCF46
S1130DCE0D0A2A2A2A2A2A204D656E75202A2A2AD5
S1130DDE2A2A0D0A00312E204D6F7374726172200F
S1130DEE76616C6F726573206465204144430D0A0D
S1130DFE002A2A2A2A2A2A2A2A2A2A2A2A2A2A2A6B
S1130E0E2A2A0D0A0053656C656363696F6E65204B
S1130E1E756E61206F706369F36E3A200056616CD3
S1130E2E6F72657320414443202D20414443363A6A
S1130E3E2025752C20414443373A2025750D0A0090
S1130E4E4F706369F36E20696E76E16C6964612E8E
S1130E5E20506F72206661766F722C2073656C65FC
S1130E6E6363696F6E6520756E61206F706369F3DD
S10F0E7E6E2076E16C6964612E0D0A00A0
S9030000FC
