S01300004C41425F335F534C4156452E73726563D6
S11300000C943B000C944D000C944D000C944D004A
S11300100C944D000C944D000C944D000C944D0028
S11300200C944D000C944D000C944D000C944D0018
S11300300C944D000C944D000C944D000C944D0008
S11300400C944D000C94F5000C944D000C944D0050
S11300500C944D000C944D000C944D000C944D00E8
S11300600C944D000C944D0083008A0091009B0079
S1130070A500AF00B90011241FBECFEFD8E0DEBF4A
S1130080CDBF21E0A0E0B1E001C01D92A330B207D2
S1130090E1F70E94D5000C9426010C94000080E442
S11300A080937C0087E880937A000895ECE7F0E081
S11300B09081987F8770892B8083EAE7F0E08081C4
S11300C08064808380917A0086FDFCCF80917800E3
S11300D0909179000895E82F84FF52C084B18C6216
S11300E084B984B18F7E84B98CB580618CBDE7708E
S11300F08E2F90E08730910508F04BC0FC01EC5C3A
S1130100FF4F0C9420018CB58C7F8CBD8DB5816024
S11301108DBD3FC08CB58C7F8CBD8DB58E7F8DBD64
S113012038C08CB581608CBD8CB58D7F8CBD8DB590
S113013081608DBD2EC08CB581608CBD8CB58D7FEA
S11301408CBD8DB58E7F8DBD24C08CB58E7F8CBD4E
S11301508CB582608CBD8DB581608DBD1AC08CB5A7
S11301608E7F8CBD8CB582608CBD8DB58E7F8DBD30
S113017010C08CB583608CBD8DB58E7F8DBD09C0DC
S113018084B1806184B984B1837D84B98CB58F7E58
S11301908CBD8CB5462B242B282B20642CBD0895B4
S11301A08EBD0DB407FEFDCF08958AB18C6F8AB958
S11301B084B1836084B98BB183708BB985B18C7F32
S11301C085B920E040E060E080E40E946B000E947A
S11301D04F008CB580688CBD789486E00E945600F0
S11301E09093010180930001F8CF1F920F920FB6F4
S11301F00F9211242F933F934F935F936F937F93A9
S11302008F939F93AF93BF93EF93FF938EB5809398
S11302100201833621F4809100010E94D000FF91F5
S1130220EF91BF91AF919F918F917F916F915F916A
S11302304F913F912F910F900FBE0F901F901895E3
S1130240EE0FFF1F0590F491E02D0994F894FFCF71
S9030000FC
