S01300004C41425F335F534C4156452E73726563D6
S11300000C943B000C944D000C944D000C944D004A
S11300100C944D000C944D000C944D000C944D0028
S11300200C944D000C944D000C944D000C944D0018
S11300300C944D000C944D000C944D000C944D0008
S11300400C944D000C942F010C944D000C944D0015
S11300500C944D000C944D000C944D000C944D00E8
S11300600C944D000C944D00AC00B300BA00C400D5
S1130070CE00D800E20011241FBECFEFD8E0DEBFCF
S1130080CDBF21E0A0E0B1E001C01D92A630B207CF
S1130090E1F70E94FE000C9465010C94000080E4DA
S11300A080937C0087E880937A000895ECE7F0E081
S11300B09081987F8770892B8083EAE7F0E08081C4
S11300C08064808380917A0086FDFCCF80917800E3
S11300D0909179000895CF92DF92EF92FF920F935F
S11300E01F93CF93DF936C017B01D42FC0E011C029
S11300F08C2F90E08C01000F111F0E0D1F1DF601B7
S1130100E80FF91F80810E945600F80191838083D3
S1130110CF5FCD1768F3DF91CF911F910F91FF90BF
S1130120EF90DF90CF900895E82F84FF52C084B100
S11301308C6284B984B18F7E84B98CB580618CBDA6
S1130140E7708E2F90E08730910508F04BC0FC01DA
S1130150EC5CFF4F0C945F018CB58C7F8CBD8DB52E
S113016081608DBD3FC08CB58C7F8CBD8DB58E7F7D
S11301708DBD38C08CB581608CBD8CB58D7F8CBD38
S11301808DB581608DBD2EC08CB581608CBD8CB564
S11301908D7F8CBD8DB58E7F8DBD24C08CB58E7F3B
S11301A08CBD8CB582608CBD8DB581608DBD1AC04F
S11301B08CB58E7F8CBD8CB582608CBD8DB58E7FE9
S11301C08DBD10C08CB583608CBD8DB58E7F8DBD0B
S11301D009C084B1806184B984B1837D84B98CB54C
S11301E08F7E8CBD8CB5462B242B282B20642CBDF4
S11301F008958EBD0DB407FEFDCF0895CF93DF9310
S113020000D0CDB7DEB78AB18C6F8AB984B1836070
S113021084B98BB183708BB985B18C7F85B920E0AB
S113022040E060E080E40E9494000E944F0087E078
S1130230898386E08A838CB580688CBD789442E09B
S113024062E071E0CE0101960E946B00E2E0F1E011
S1130250808180930101828180930001F0CF1F92FD
S11302600F920FB60F9211242F933F934F935F93E6
S11302706F937F938F939F93AF93BF93EF93FF936A
S11302808EB5833629F4809101010E94F90006C0DD
S1130290843621F4809100010E94F900FF91EF91CE
S11302A0BF91AF919F918F917F916F915F914F918A
S11302B03F912F910F900FBE0F901F901895EE0F46
S11102C0FF1F0590F491E02D0994F894FFCFF0
S9030000FC
