S01300004C41425F335F534C4156452E73726563D6
S11300000C943B000C944D000C944D000C944D004A
S11300100C944D000C944D000C944D000C944D0028
S11300200C944D000C944D000C944D000C944D0018
S11300300C944D000C944D000C944D000C944D0008
S11300400C944D000C942A010C944D000C944D001A
S11300500C944D000C94F0000C944D000C944D0045
S11300600C944D000C944D0087008E0095009F0069
S1130070A900B300BD0011241FBECFEFD8E0DEBF3E
S1130080CDBF21E0A0E0B1E001C01D92A330B207D2
S1130090E1F70E94DF000C9449010C940000ECE7A6
S11300A0F0E01082AEE7B0E08C9181608C938C918B
S11300B082608C938081806280838081806480836D
S11300C080818F778083EAE7F0E080818860808395
S11300D08081876080838081806880830895E82F91
S11300E084FF52C084B18C6284B984B18F7E84B998
S11300F08CB580618CBDE7708E2F90E087309105C0
S113010008F04BC0FC01EC5CFF4F0C9443018CB530
S11301108C7F8CBD8DB581608DBD3FC08CB58C7FCF
S11301208CBD8DB58E7F8DBD38C08CB581608CBD86
S11301308CB58D7F8CBD8DB581608DBD2EC08CB589
S113014081608CBD8CB58D7F8CBD8DB58E7F8DBD52
S113015024C08CB58E7F8CBD8CB582608CBD8DB572
S113016081608DBD1AC08CB58E7F8CBD8CB58260CC
S11301708CBD8DB58E7F8DBD10C08CB583608CBD5C
S11301808DB58E7F8DBD09C084B1806184B984B181
S1130190837D84B98CB58F7E8CBD8CB5462B242B86
S11301A0282B20642CBD0895F89417B80E946F0082
S11301B08CB580688CBD0E944F00789408950E948D
S11301C0D400EAE7F0E08081806480832FEF89EF38
S11301D090E0215080409040E1F700C00000F1CF52
S11301E01F920F920FB60F9211248F93EF93FF93E8
S11301F080910001882319F0813089F01EC0ECE75A
S1130200F0E08081807F808380818660808380911C
S113021079008093020181E0809300010EC0ECE735
S1130220F0E08081807F80838081876080838091FB
S113023079008093010110920001EAE7F0E08081E7
S113024080618083FF91EF918F910F900FBE0F908B
S11302501F9018951F920F920FB60F9211248F932F
S11302609F938EB5813019F4909101019EBD823027
S113027019F4809102018EBD9F918F910F900FBE52
S11302800F901F901895EE0FFF1F0590F491E02D2D
S10902900994F894FFCF6D
S9030000FC
