S01300004C41425F335F534C4156452E73726563D6
S11300000C9434000C9451000C9451000C94510045
S11300100C9451000C9451000C9451000C94510018
S11300200C9451000C9451000C9451000C94510008
S11300300C9451000C9451000C9451000C945100F8
S11300400C9451000C9451000C9451000C945100E8
S11300500C9451000C9451000C9451000C945100D8
S11300600C9451000C94510011241FBECFEFD8E022
S1130070DEBFCDBF12E0A0E0B1E0EEE0FDE002C0E3
S113008005900D92A436B107D9F722E0A4E6B2E0B8
S113009001C01D92AE3AB207E1F70E9458010C94D8
S11300A085060C94000080E480937C0087E88093AC
S11300B07A000895ECE7F0E09081987F8770892BAF
S11300C08083EAE7F0E080818064808380917A0015
S11300D086FDFCCF80917800909179000895CF92AD
S11300E0DF92EF92FF920F931F93CF93DF936C01F4
S11300F07B01D42FC0E011C08C2F90E08C01000F45
S1130100111F0E0D1F1DF601E80FF91F80810E94BB
S11301105A00F80191838083CF5FCD1768F3DF9194
S1130120CF911F910F91FF90EF90DF90CF900895A2
S11301309B01AC0160E472E48FE090E00E946B03E9
S1130140215031093093C5002093C40088E1809385
S1130150C10086E08093C20008959091C00095FF8D
S1130160FCCF8093C60008958091C0008823E4F7F3
S11301708091C6000895CF93DF93EC0103C02196CC
S11301800E94AD0088818111FACFDF91CF9108954B
S113019080E091E00E94BB0085E191E00E94BB00F9
S11301A081E391E00E94BB008FE491E00E94BB00D8
S11301B08DE691E00E94BB008DE891E00E94BB00B7
S11301C081EA91E00E94BB0008958D32E1F118F4B8
S11301D08B3259F166C0813321F0843309F441C074
S11301E060C0EAEAF2E081818F9380818F938381FA
S11301F08F9382818F9389EB91E09F938F931F92CA
S113020080E48F9388E692E09F938F930E948D03FE
S113021088E692E00E94BB008DB79EB70A960FB69F
S1130220F8949EBF0FBE8DBF40C080916402909130
S11302306502019690936502809364028CED91E0CF
S11302400E94BB0032C080916402909165020197C4
S1130250909365028093640285EF91E00E94BB0055
S113026024C0809165028F93809164028F938EE005
S113027092E09F938F931F9280E48F9388E692E09D
S11302809F938F930E948D0388E692E00E94BB00A7
S11302908DB79EB708960FB6F8949EBF0FBE8DBF5C
S11302A004C087E292E00E94BB000E94C800089547
S11302B0CF93DF9300D0CDB7DEB78FEF8AB98FE04D
S11302C084B90E94530060E875E280E090E00E94E7
S11302D0980087E0898386E08A830E94C80042E010
S11302E06AEA72E0CE0101960E946F000AEA12E007
S11302F0F8016081718180E090E00E94700220E04A
S113030030E040EA50E40E94FE0220E030EC4FE787
S113031054E40E94C80120E030E048EC52E40E941A
S1130320FE020E943A027093670260936602F8012B
S11303306281738180E090E00E94700220E030E0EE
S113034040EA50E40E94FE0220E030EC4FE754E41F
S11303500E94C80120E030E048EC52E40E94FE0212
S11303600E943A027093A9026093A8028091C0008F
S1130370882324F40E94B4000E94E500FFEF29E6DC
S113038088E1F15020408040E1F700C00000A7CF91
S11303900E94DC010C94C4020E94BD0258F00E9429
S11303A0B60240F029F45F3F29F00C94AD025111DC
S11303B00C94F8020C94B3020E94D50268F39923BA
S11303C0B1F3552391F3951B550BBB27AA2762174D
S11303D07307840738F09F5F5F4F220F331F441F5A
S11303E0AA1FA9F335D00E2E3AF0E0E832D091508E
S11303F05040E695001CCAF72BD0FE2F29D0660F7B
S1130400771F881FBB1F261737074807AB07B0E8BD
S113041009F0BB0B802DBF01FF2793585F4F3AF0C3
S11304209E3F510578F00C94AD020C94F8025F3FA6
S1130430E4F3983ED4F3869577956795B795F79549
S11304409F5FC9F7880F911D9695879597F9089531
S1130450E1E0660F771F881FBB1F621773078407CD
S1130460BA0720F0621B730B840BBA0BEE1F88F7DC
S1130470E09508950E9441026894B1110C94F80229
S113048008950E94DD0288F09F5798F0B92F9927AC
S1130490B751B0F0E1F0660F771F881F991F1AF06B
S11304A0BA95C9F714C0B13091F00E94F702B1E0D7
S11304B008950C94F702672F782F8827B85F39F0D6
S11304C0B93FCCF3869577956795B395D9F73EF404
S11304D090958095709561957F4F8F4F9F4F0895AC
S11304E0E89409C097FB3EF49095809570956195CA
S11304F07F4F8F4F9F4F9923A9F0F92F96E9BB2780
S11305009395F695879577956795B795F111F8CFFB
S1130510FAF4BB0F11F460FF1BC06F5F7F4F8F4F66
S11305209F4F16C0882311F096E911C0772321F05C
S11305309EE8872F762F05C0662371F096E8862FF4
S113054070E060E02AF09A95660F771F881FDAF74B
S1130550880F9695879597F9089597F99F6780E88E
S113056070E060E008959FEF80EC089500240A9401
S11305701616170618060906089500240A9412167A
S11305801306140605060895092E0394000C11F4AD
S1130590882352F0BB0F40F4BF2B11F460FF04C05A
S11305A06F5F7F4F8F4F9F4F089557FD9058440FB3
S11305B0551F59F05F3F71F04795880F97FB991FBE
S11305C061F09F3F79F0879508951216130614067B
S11305D0551FF2CF4695F1DF08C016161706180608
S11305E0991FF1CF86957105610508940895E894E3
S11305F0BB2766277727CB0197F908950E9411033B
S11306000C94C4020E94B60238F00E94BD0220F08D
S1130610952311F00C94AD020C94B30211240C94A4
S1130620F8020E94D50270F3959FC1F3950F50E034
S1130630551F629FF001729FBB27F00DB11D639F90
S1130640AA27F00DB11DAA1F649F6627B00DA11D36
S1130650661F829F2227B00DA11D621F739FB00DDC
S1130660A11D621F839FA00D611D221F749F33274C
S1130670A00D611D231F849F600D211D822F762FE5
S11306806A2F11249F5750409AF0F1F088234AF0C2
S1130690EE0FFF1FBB1F661F771F881F915050402E
S11306A0A9F79E3F510580F00C94AD020C94F8021A
S11306B05F3FE4F3983ED4F3869577956795B795B5
S11306C0F795E7959F5FC1F7FE2B880F911D9695CF
S11306D0879597F90895A1E21A2EAA1BBB1BFD0169
S11306E00DC0AA1FBB1FEE1FFF1FA217B307E4070D
S11306F0F50720F0A21BB30BE40BF50B661F771F65
S1130700881F991F1A9469F7609570958095909544
S11307109B01AC01BD01CF010895AEE0B0E0E3E977
S1130720F3E00C945C060D891E898F89988D26E070
S11307302C831A83098397FF02C080E090E8019715
S11307409E838D83AE01455E5F4F698D7A8DCE01A8
S113075001960E94BD034D815E8157FD0AC02F8121
S11307603885421753070CF49A01F801E20FF31F7E
S113077010822E96E4E00C947806ABE0B0E0E3EC53
S1130780F3E00C944E066C017B018A01FC01178294
S11307901682838181FFCCC1CE0101963C01F60112
S11307A09381F70193FD859193FF81917F018823C4
S11307B009F4BAC1853239F493FD859193FF81918F
S11307C07F01853229F4B60190E00E94B405E7CF99
S11307D0912C212C312CFFE1F315D8F08B3279F0D8
S11307E038F4803279F08332A1F4232D20611DC0C6
S11307F08D3261F0803369F4232D216016C0832D7E
S11308008260382EE32DE4603E2E2AC0F32DF8607A
S11308101DC037FC2DC020ED280F2A3040F08E3249
S1130820B9F436FC81C1232D2064322E19C036FE62
S113083006C08AE0989E200D1124922E11C0EAE091
S11308402E9E200D1124222EF32DF0623F2E08C07F
S11308508C3621F4832D8068382E02C0883641F40A
S1130860F70193FD859193FF81917F018111B3CFAE
S1130870982F9F7D9554933028F40C5F1F4F9FE36E
S113088099830DC0833631F0833771F0833509F0D5
S113089059C021C0F801808189830E5F1F4F8824CD
S11308A08394912C530113C02801F2E04F0E511C84
S11308B0F801A080B18036FE03C0692D70E002C04B
S11308C06FEF7FEFC5010E94A9054C018201F32D52
S11308D0FF773F2E16C0280122E0420E511CF8017A
S11308E0A080B18036FE03C0692D70E002C06FEFB6
S11308F07FEFC5010E949E054C01F32DF0683F2E49
S1130900820133FC1BC0822D90E088169906B0F456
S1130910B60180E290E00E94B4052A94F4CFF50178
S113092037FC859137FE81915F01B60190E00E940A
S1130930B40521102A9421E0821A910881149104AB
S113094071F7E8C0843611F0893641F5F80137FEB5
S113095007C060817181828193810C5F1F4F08C041
S113096060817181072E000C880B990B0E5F1F4F5D
S1130970F32DFF763F2E97FF09C0909580957095D3
S113098061957F4F8F4F9F4FF0683F2E2AE030E0F4
S1130990A3010E94F005882E861845C0853731F4DE
S11309A0232D2F7EB22E2AE030E025C0932D997F8F
S11309B0B92E8F36C1F018F4883579F0B5C0803778
S11309C019F0883721F0B0C0E92FE061BE2EB4FEE3
S11309D00DC0FB2DF460BF2E09C034FE0AC0292FC0
S11309E02660B22E06C028E030E005C020E130E0E9
S11309F002C020E132E0F801B7FE07C060817181D6
S1130A00828193810C5F1F4F06C06081718180E0F9
S1130A1090E00E5F1F4FA3010E94F005882E8618F8
S1130A20FB2DFF773F2E36FE0DC0232D2E7FA22EE9
S1130A30891458F434FE0BC032FC09C0832D8E7E19
S1130A40A82E05C0B82CA32C03C0B82C01C0B92C07
S1130A50A4FE0FC0FE01E80DF11D8081803321F456
S1130A609A2D997EA92E09C0A2FE06C0B394B39410
S1130A7004C08A2D867809F0B394A3FC11C0A0FEAB
S1130A8006C0B21488F4280C922C9B180EC0B21421
S1130A9060F4B60180E290E00E94B405B394F7CF0D
S1130AA0B21418F42B1802C0982C212CA4FE10C0E8
S1130AB0B60180E390E00E94B405A2FE17C0A1FC39
S1130AC003C088E790E002C088E590E0B6010CC05E
S1130AD08A2D867859F0A1FE02C08BE201C080E223
S1130AE0A7FC8DE2B60190E00E94B405891438F4A5
S1130AF0B60180E390E00E94B4059A94F7CF8A94FB
S1130B00F301E80DF11D8081B60190E00E94B40567
S1130B108110F5CF222009F442CEB60180E290E0A4
S1130B200E94B4052A94F6CFF6018681978102C00B
S1130B308FEF9FEF2B96E2E10C946A06FC0105907F
S1130B40615070400110D8F7809590958E0F9F1FCB
S1130B500895FC016150704001900110D8F7809510
S1130B6090958E0F9F1F08950F931F93CF93DF933C
S1130B70FB01238121FD03C08FEF9FEF2CC022FFD7
S1130B8016C046815781248135814217530744F4A6
S1130B90A081B1819D012F5F3F4F318320838C93CE
S1130BA0268137812F5F3F4F3783268314C08B0103
S1130BB0EC01FB010084F185E02D0995892BE1F618
S1130BC0D80116968D919C911797019617969C9330
S1130BD08E931697CE01DF91CF911F910F910895B7
S1130BE0FA01AA27283051F1203181F1E8946F935A
S1130BF06E7F6E5F7F4F8F4F9F4FAF4FB1E03ED000
S1130C00B4E03CD0670F781F891F9A1FA11D680F9D
S1130C10791F8A1F911DA11D6A0F711D811D911DD0
S1130C20A11D20D009F468943F912AE0269F112445
S1130C303019305D3193DEF6CF010895462F4770A9
S1130C40405D4193B3E00FD0C9F7F6CF462F4F7004
S1130C50405D4A3318F0495D31FD4052419302D062
S1130C60A9F7EACFB4E0A695979587957795679508
S1130C70BA95C9F700976105710508959B01AC0108
S1130C800A2E06945795479537952795BA95C9F72F
S1130C90620F731F841F951FA01D08952F923F920A
S1130CA04F925F926F927F928F929F92AF92BF9278
S1130CB0CF92DF92EF92FF920F931F93CF93DF9324
S1130CC0CDB7DEB7CA1BDB0B0FB6F894DEBF0FBE81
S1130CD0CDBF09942A88398848885F846E847D84CE
S1130CE08C849B84AA84B984C884DF80EE80FD80D0
S1130CF00C811B81AA81B981CE0FD11D0FB6F89446
S1110D00DEBF0FBECDBFED010895F894FFCF06
S1130D0E0D0A2A2A2A2A2A204D656E75202A2A2A95
S1130D1E2A2A0D0A00312E204D6F737472617220CF
S1130D2E76616C6F726573206465204144430D0ACD
S1130D3E00322E20496E6372656D656E7461722089
S1130D4E636F6E7461646F7220282B290D0A003351
S1130D5E2E2044656372656D656E74617220636FD7
S1130D6E6E7461646F7220282D290D0A00342E20B2
S1130D7E4D6F73747261722076616C6F722064654C
S1130D8E6C20636F6E7461646F720D0A002A2A2AD6
S1130D9E2A2A2A2A2A2A2A2A2A2A2A2A2A2A0D0ADE
S1130DAE0053656C656363696F6E6520756E6120B3
S1130DBE6F706369F36E3A200056616C6F726573DF
S1130DCE20414443202D20414443363A2025752C9E
S1130DDE20414443373A2025750D0A00436F6E7443
S1130DEE61646F7220696E6372656D656E746164A1
S1130DFE6F2E0D0A00436F6E7461646F722064650A
S1130E0E6372656D656E7461646F2E0D0A005661B2
S1130E1E6C6F722064656C20636F6E7461646F72A4
S1130E2E3A2025640D0A004F706369F36E20696ED3
S1130E3E76E16C6964612E20506F72206661766F64
S1130E4E722C2073656C656363696F6E6520756EB5
S1130E5E61206F706369F36E2076E16C6964612EB4
S1070E6E0D0A000065
S9030000FC
