S01300004C41425F335F534C4156452E73726563D6
S11300000C943B000C944D000C944D000C944D004A
S11300100C944D000C944D000C944D000C944D0028
S11300200C944D000C944D000C944D000C944D0018
S11300300C944D000C944D000C944D000C944D0008
S11300400C944D000C9400010C944D000C944D0044
S11300500C944D000C94E7000C944D000C944D004E
S11300600C944D000C944D0067006E0075007F00E9
S1130070890093009D0011241FBECFEFD8E0DEBF9E
S1130080CDBF21E0A0E0B1E001C01D92A130B207D4
S1130090E1F70E94C0000C942F010C940000E82F9B
S11300A084FF52C084B18C6284B984B18F7E84B9D8
S11300B08CB580618CBDE7708E2F90E08730910500
S11300C008F04BC0FC01EC5CFF4F0C9429018CB58B
S11300D08C7F8CBD8DB581608DBD3FC08CB58C7F10
S11300E08CBD8DB58E7F8DBD38C08CB581608CBDC7
S11300F08CB58D7F8CBD8DB581608DBD2EC08CB5CA
S113010081608CBD8CB58D7F8CBD8DB58E7F8DBD92
S113011024C08CB58E7F8CBD8CB582608CBD8DB5B2
S113012081608DBD1AC08CB58E7F8CBD8CB582600C
S11301308CBD8DB58E7F8DBD10C08CB583608CBD9C
S11301408DB58E7F8DBD09C084B1806184B984B1C1
S1130150837D84B98CB58F7E8CBD8CB5462B242BC6
S1130160282B20642CBD08958EBD0DB407FEFDCF51
S1130170089587E680937C008FE880937A00089541
S11301808AB18C6F8AB984B1836084B98BB183706E
S11301908BB985B18C7F85B920E040E060E080E4D4
S11301A00E944F000E94B9008CB580688CBD789481
S11301B0EAE7F0E08081806480832FEF81EE94E0B1
S11301C0215080409040E1F700C00000F1CF1F9221
S11301D00F920FB60F9211248F93EF93FF93809198
S11301E0790080930001EAE7F0E0808180618083F8
S11301F0FF91EF918F910F900FBE0F901F90189564
S11302001F920F920FB60F9211242F933F934F9387
S11302105F936F937F938F939F93AF93BF93EF936A
S1130220FF938EB5833621F4809100010E94B400BF
S1130230FF91EF91BF91AF919F918F917F916F91BA
S11302405F914F913F912F910F900FBE0F901F9090
S11302501895EE0FFF1F0590F491E02D0994F89482
S1050260FFCFCA
S9030000FC
