S01300004C41425F335F534C4156452E73726563D6
S11300000C943B000C944D000C944D000C944D004A
S11300100C944D000C944D000C944D000C944D0028
S11300200C944D000C944D000C944D000C944D0018
S11300300C944D000C944D000C944D000C944D0008
S11300400C944D000C9489010C944D000C944D00BB
S11300500C944D000C94AC000C944D000C944D0089
S11300600C944D000C944D000E0115011C01260149
S113007030013A01440111241FBECFEFD8E0DEBFA6
S1130080CDBF21E0A0E0B1E001C01D92A931B207CB
S1130090E1F70E9460010C94BC010C94000080E420
S11300A080937C008FE880937A0078940895ECE73D
S11300B0F0E09081987F8770892B8083EAE7F0E0F5
S11300C08081806480830895E82FF0E0EE0FFF1FA5
S11300D0EB5FFE4F808191810895CF92DF92EF9282
S11300E0FF920F931F93CF93DF937C016B01D42F67
S11300F09093040180930301409300011092010145
S113010080910101F701E80FF11D80810E945700E1
S113011090910101809100019817D0F3C0E011C0C3
S11301208C2F90E08C01000F111F0C0D1D1DF70189
S1130130E80FF91F80810E946400F8019183808395
S1130140CF5FCD1768F3DF91CF911F910F91FF908F
S1130150EF90DF90CF9008951F920F920FB60F92F9
S113016011242F933F934F935F936F937F938F93B8
S11301709F93AF93BF93EF93FF932091030130912B
S1130180040180910101F901E80FF11DE081F0E023
S11301908091780090917900EE0FFF1FEB5FFE4F86
S11301A091838083809101018F5F809301019091FD
S11301B0010180910001981740F480910101F90137
S11301C0E80FF11D80810E945700FF91EF91BF91CC
S11301D0AF919F918F917F916F915F914F913F91DB
S11301E02F910F900FBE0F901F901895E82F84FF4A
S11301F052C084B18C6284B984B18F7E84B98CB5C9
S113020080618CBDE7708E2F90E08730910508F0F7
S11302104BC0FC01EC5CFF4F0C94B6018CB58C7F99
S11302208CBD8DB581608DBD3FC08CB58C7F8CBD80
S11302308DB58E7F8DBD38C08CB581608CBD8CB57D
S11302408D7F8CBD8DB581608DBD2EC08CB58160D8
S11302508CBD8CB58D7F8CBD8DB58E7F8DBD24C03E
S11302608CB58E7F8CBD8CB582608CBD8DB5816064
S11302708DBD1AC08CB58E7F8CBD8CB582608CBD53
S11302808DB58E7F8DBD10C08CB583608CBD8DB552
S11302908E7F8DBD09C084B1806184B984B1837DB2
S11302A084B98CB58F7E8CBD8CB5462B242B282B22
S11302B020642CBD08958EBD0DB407FEFDCF0895B6
S11302C0CF93DF9300D0CDB7DEB78AB18C6F8AB9F4
S11302D084B1836084B98BB183708BB985B18C7F11
S11302E085B920E040E060E080E40E94F6000E94CE
S11302F04F008CB580688CBD789486E0898387E054
S11303008A8342E065E171E0CE0101960E946D00AE
S1130310FFCF1F920F920FB60F9211242F933F938A
S11303204F935F936F937F938F939F93AF93BF93F9
S1130330EF93FF938EB580930201833631F480915D
S11303401701909118010E945B01FF91EF91BF91F9
S1130350AF919F918F917F916F915F914F913F9159
S11303602F910F900FBE0F901F901895EE0FFF1F47
S10F03700590F491E02D0994F894FFCF5F
S9030000FC
